:020000040800F2
:10000000C00E002089010008AD53000865480008B3
:10001000A9530008A9040008D55D000800000000ED
:10002000000000000000000000000000B5530008C0
:10003000AD04000800000000B1530008B9530008E7
:10004000A3010008A3010008A3010008A301000800
:10005000A3010008A3010008A3010008A3010008F0
:10006000A3010008A3010008A3010008A3010008E0
:10007000A3010008A3010008A3010008A3010008D0
:10008000A3010008A3010008A3010008515C0008B7
:10009000715C0008A3010008A3010008A301000887
:1000A000A3010008A3010008A3010008A3010008A0
:1000B000A3010008C1530008CD530008754800088B
:1000C00069480008A3010008A3010008A301000873
:1000D000A3010008A3010008A3010008A301000870
:1000E000A3010008A3010008A301000800F002F822
:1000F00000F03AF80AA090E8000C82448344AAF188
:100100000107DA4501D100F02FF8AFF2090EBAE885
:100110000F0013F0010F18BFFB1A43F0010318473B
:10012000109D0000309D0000103A24BF78C878C1AF
:10013000FAD8520724BF30C830C144BF04680C60ED
:10014000704700000023002400250026103A28BF35
:1001500078C1FBD8520728BF30C148BF0B60704739
:100160001FB51FBD10B510BD00F0CEF81146FFF74A
:10017000F7FF06F08FFE00F0ECF803B4FFF7F2FF94
:1001800003BC00F0B7F80000094880470948004761
:10019000FEE7FEE7FEE7FEE7FEE7FEE7FEE7FEE737
:1001A000FEE7FEE704480549054A064B7047000094
:1001B000BD530008ED000008C0080020C00E00205C
:1001C000C00A0020C00A002053EA020C00F0698037
:1001D0002DE9F04B4FF00006002B1FBFB3FA83F55B
:1001E00003FA05F424FA05F65E4012BF1643B2FA8C
:1001F00082F502FA05F4C5F120051EBF22FA05FCBE
:1002000044EA0C04203556EA044C4FEA144418BF63
:10021000641C4FF000084FF00009904271EB030C92
:1002200039D3002919BFB1FA81F701FA07F6B0FAFC
:1002300080F700FA07F6C7F120071EBF20FA07FC77
:1002400046EA0C062037B6FBF4FCA7EB0507103F87
:1002500007F01F0BCBF120062CFA06F60CFA0BFB6D
:1002600044BFB3460026202FA4BF5E464FF0000BCC
:100270005BEA060C08BF4FF0010B19EB0B0948EBCA
:100280000608ABFB027C06FB02CC0BFB03CCC01BBD
:1002900071EB0C01C1E70B46024641464846BDE8FA
:1002A000F08B13B5084318BF4FF0FF300146AFF392
:1002B0000080BDE81C40704770477047704710B51C
:1002C00000F008F8006810BD10B5044600F002F810
:1002D000046010BD004870471800002010B50020D1
:1002E00000F040F8FFF73EFFBDE81040012000F0AD
:1002F00001B8000001491820ABBEFEE7260002004D
:1003000000487047180000207546FFF7F9FFAE4619
:1003100005006946534620F00700854618B020B511
:10032000FFF740FFBDE820404FF000064FF0000708
:100330004FF000084FF0000BAC46ACE8C009ACE849
:10034000C009ACE8C009ACE8C00921F007018D463E
:10035000704710B50446AFF300802046BDE810405A
:10036000FFF70BBF10B500F00BF8BDE8104000F030
:1003700001B87047002801D0FFF7BCBF70470000EC
:1003800010B5002102A000F013F8012010BD0000FC
:10039000534947414252543A2041626E6F726D6137
:1003A0006C207465726D696E6174696F6E00000017
:1003B00070B505460C460A2000E06D1C00F011F8EF
:1003C00035B128780028F8D102E0641C00F009F863
:1003D00014B120780028F8D1BDE870400A20AFF3AE
:1003E000008008B569468DF800000320ABBE08BD4B
:1003F000B0B582B004460020019021688A68D20717
:100400004FD1886840F00100886040F21000C2F2CD
:10041000000000684DF68361C4F21B31A0FB0101AE
:10042000880C01900198A0B10198013801900198C1
:1004300078B1019801380190019850B101980138C4
:100440000190019828B10198013801900198002885
:10045000EAD101F05DFA21688968C9071CD1054617
:1004600003E000BF8068C0071AD101F051FA411BB8
:1004700020680329F6D38168C907F3D1A06A40F048
:100480001000A062E06A40F00100E062002084F801
:100490002400012002B0B0BD002002B0B0BD00BFFA
:1004A000002002B0B0BD0000FEE700007047000071
:1004B00070B542F20C060446C4F2020601F028FAB6
:1004C0003168C90718D13068800644BF20203060E9
:1004D0003068C00607D43069C00704D130684007CF
:1004E0005CBF002070BD3068C00623D40020316896
:1004F00049072BD434E000BF002C47D00546601CD0
:100500000ED13068C007DED03068C0071CBF30682D
:100510005FEAC070D7D03068C007F2D1D3E700BF20
:1005200001F0F6F9401BA04230D83068C007F7D17F
:10053000C9E700BF40F29870C2F20000C16941F003
:100540000201C16110203168490709D540F2987154
:10055000C2F20001CA6940F0040042F00102CA611F
:100560003169C90702D13060012070BD40F2987135
:10057000C2F20001CA6942F00402CA61316921F085
:10058000010131613060012070BD00BF032070BDEA
:1005900010B581B00022009290F82420012A03D1E6
:1005A0000221084601B010BD4B680122062B80F8DD
:1005B000242017D8D0F800C003EB83035A1F1F2351
:1005C000DCF834E003FA02F40B682EEA040403FAC0
:1005D00002F22243CCF83420092B03EB430219D951
:1005E00036E000BFD0F800C00C2B03EB83021DD80F
:1005F000233A1F23DCF830E003FA02F40B682EEAFA
:10060000040403FA02F22243CCF83020092B03EB56
:1006100043021DD8DCF81030072489689440A343B6
:1006200091401943CCF81010002130E0413A1F23CB
:10063000DCF82CE003FA02F40B682EEA040403FA57
:1006400002F22243CCF82C20092B03EB4302E1D920
:10065000DCF80CE01E3A0724896894402EEA040472
:10066000914023F001022143102ACCF80C100DD147
:1006700042F20841C4F20101A1F1080294450DD0F3
:10068000816A41F020018162012100E00021002205
:1006900080F82420084601B010BD00BF0A6812028D
:1006A00030D40A68102B42F400020A602CD140F2C8
:1006B0001001C2F2000109684DF68362C4F21B32D8
:1006C000A1FB0212910C01EB8101490000910099FC
:1006D000E1B10099013900910099C9B1009901393E
:1006E00000910099B1B1009901390091009999B137
:1006F000009901390091009900294FF00001E8D1DB
:10070000C5E700BF0021C2E70021C0E70021BEE726
:100710000021BCE70021BAE70021B8E70068C06CFF
:1007200070470000B0B5002800F0A8800446806A39
:1007300020B121688868C0070BD114E00020E06276
:1007400084F82400204600F09BF821688868C007E0
:1007500009D0886820F00100886001F0D9F821688C
:100760008A68D20726D1A06AC0063AD4A06A41F2AC
:10077000021290430230A062E069D4E9013240EAFB
:10078000030C531EB3FA83F35D091346B2F5807F61
:1007900018BF2B02207D257B01284CEA450030D173
:1007A00035B3A56A45F02005A562E56A45F0010567
:1007B000E56226E0054602E08868C007D3D001F074
:1007C000A7F8401B21680328F6D38868C007F3D038
:1007D000A06A40F01000A062E06A40F00100E06210
:1007E000A06AA06A40F01000A0620120B0BD00BF66
:1007F000D4F818C04EF60005CFF6FF7505EB4C3562
:100800002B434D68B2F5807F25F4694543EA050323
:100810004B608B684FF2FD75CFF6E17503EA050377
:1008200043EA00038B6001D0012A07D1226900232B
:10083000CFF6F07303EB025201E000BF0022CB6A57
:1008400023F470031A43CA62896840F6FE62CFF649
:100850001F721140814207D10020E062A16A01228B
:1008600062F30101A162B0BDA06A40F0100020F067
:100870000200A062E06A40F00100E0620120B0BD29
:1008800080B586B0014640F60000C4F20100096858
:1008900000F5E05291424FF00001CDE9041101D082
:1008A00006B080BD41F21801C4F202010A6842F4A8
:1008B00000720A600A6802F400720192019A0A68E2
:1008C00042F004020A60096801F0040101910199F3
:1008D0003F2102910321039102A900F0FFFE06B01F
:1008E00080BD0000F0B581B000270D46044600979A
:1008F00001F00EF821688A68D20543D4064648689C
:10090000C00503D4C86A10F4700F45D040F210003F
:10091000C2F200000768022002F098FD216844F648
:1009200024130A69B7FBF0F0C2F292431A4206D1CF
:10093000CA6844F62413C0F292031A425ED00A69D0
:1009400042F29243C1F249231A4207D1CA6842F2E5
:100950009243C0F249031A4200F0C0800A6949F28A
:100960004923C0F224031A424FF0FC0257D1CF684A
:100970001F4208BF5422009B02FB00F7BB4253D327
:10098000C3E000BFA06A40F02000A06284F8247099
:10099000012001B0F0BD00BF0868800700F1B580FC
:1009A000681C00F0A880FDB90868800772D5086847
:1009B000800700F1AA80086880076BD50868800767
:1009C00000F1A3800868800764D50868800700F1FB
:1009D0009C80086880075DD508688007E4D594E0AE
:1009E0000868800700F1918000F092FF801B216869
:1009F000A842F5D908688007F2D44BE00A6942F2B0
:100A00009243C1F249231A424FF0290207D1CB6821
:100A100042F29247C0F249073B4208BF1422009BB2
:100A200002FB00F7BB4270D2681C4FD055BB009848
:100A3000B8422FD30098013000900098B84264D299
:100A40000098B84226D30098013000900098B84230
:100A50005BD20098B8421DD30098013000900098F6
:100A6000B84252D20098B84214D300980130009096
:100A70000098B842DBD348E000980130009000981D
:100A8000B84233D200F044FF801BA842F4D900984A
:100A9000B842F1D2A06A40F00400A062002084F8BD
:100AA0002400032001B0F0BD0098013000900098B0
:100AB000B8422AD20098013000900098B84224D25F
:100AC0000098013000900098B8421ED20098013082
:100AD00000900098B842E7D317E000BF5422009B73
:100AE00002FB00F7BB429FD30FE000BF21680CE080
:100AF0000868800709D40868800706D4086880075A
:100B00005CBF08685FEA8070F2D56FF01200086081
:100B1000A06A40F40070A062886800F46020B0F51C
:100B2000602F01D1207B18B1002001B0F0BD00BFC3
:100B3000A06A20F48070A062A06AC004F4D4A06A05
:100B400040F00100A062002001B0F0BD10B50446E5
:100B500090F82400012804BF022010BD012084F871
:100B600024002046FFF744FC20B1002184F8241023
:100B700010BD00BF42F2044C2068A16AC4F2010C0F
:100B800040F2013291430CF57F7201F58071904281
:100B9000A16233D0A16A21F48011A16241684905A4
:100BA00004D5A16A012363F30D31A162A16A002378
:100BB000C9044FF0000144BFE16A21F00601E1627F
:100BC0006FF0020184F824300160816801F4602133
:100BD000B1F5602F06D190420AD1DCF8001011F473
:100BE000702F05D0816841F480118160002010BD14
:100BF000816841F4A0018160002010BDDCF8001084
:100C000011F4702FC6D0A16A41F48011A162DCF802
:100C100000104905C5D4C9E7B0B5044690F82400D2
:100C2000012804BF0220B0BD0121206884F82410EF
:100C30008168C90709D0816821F00101816000F055
:100C400067FE21688968C9070ED1214651F8280F2F
:100C500041F2011220EA0202002042F001020A6081
:100C6000002184F82410B0BD054602E08068C0076A
:100C7000EBD000F04DFE411B20680329F6D38168BC
:100C8000C907F3D0A06A214640F01000A06251F8D5
:100C90002C2F0120E1E7000090F82020013A012AE2
:100CA00008D8006800F1140200201368194311608D
:100CB000704700BF00F1240201204FF48021136827
:100CC000194311607047000010B590F820E0D0F88B
:100CD00000C0AEF1010EBEF1010FDCF808E011D842
:100CE0001EF0E05F18D0CEF3016E012000FA0EF086
:100CF00018608B68D3B14868CC6844EAC0000343ED
:100D000018E000BF00F1240101204FF480220B689D
:100D10001A430A6010BD00BF00F1240101204FF406
:100D200000120B681A430A6010BD00BF0868CB6848
:100D300043EA40530CEB0E10C0F880310B69C0F849
:100D40008431097D012905D100F5C2710B6843F496
:100D500080730B605168C0F88C11126800F5C07187
:100D6000C0F88821002001220B681A430A6010BDD8
:100D7000B0B5026890F82030013B012B28D8D2F89A
:100D80000002012340F00100C2F80002D1F814E093
:100D9000CC690EF01F0003FA00F0D2F81C326FEAA3
:100DA000000C8343012CC2F81C3217D06CBBD2F864
:100DB0000C3203EA0C03C2F80C32CB688C8844EA8C
:100DC000034302EBCE04C4F840320B4615E000BFEB
:100DD000416A41F4802141620120B0BDD2F80C3259
:100DE0000343C2F80C320B688C8844EA034302EBDD
:100DF000CE04C4F8403201F10C038C681B8843EA2E
:100E0000044302EBCE04C4F84432D2F804328D69B4
:100E100043EA0004D1F810E0096A002D08BF03EA94
:100E20000C04C2F80442D2F81432BEF1000F43EAB7
:100E3000000408BF03EA0C040129C2F8144204D1DB
:100E4000D2F81C120843C2F81C02D2F8000220F0AB
:100E50000100C2F800020020B0BD00007047000091
:100E600090F820100139012984BF002070470068E4
:100E7000816882688068C1F38061C2F3C0621144F6
:100E8000C0F30070084470472DE9F04F81B004466C
:100E900000684669D0F804908768D0F80CB0D0F8A4
:100EA00010A0D0F81880F10704D1002530071DD418
:100EB00024E000BFF90710D00121BA07816009D4EE
:100EC000780700F1AF80380700F1B680204600F0C7
:100ED0001BFA02E0204600F019FA0025F80500F19F
:100EE0008780F80300F1B180300707D51BF01000B0
:100EF00004D0206845F400751021C160700708D542
:100F00001BF0080005D020680821C160204600F0D1
:100F1000C3F9B00706D52068C068800702D0204614
:100F200000F0BCF9700607D51AF0100004D0206854
:100F300045F4806510210161B00608D51AF008005B
:100F400005D0206808210161204600F0A9F9F006CB
:100F500006D520680069800702D0204600F0A2F97B
:100F6000B00308D519F0100005D0206810214160A9
:100F7000204600F099F9F00308D519F0080005D0D3
:100F8000206808214160204600F0CAF9300440F191
:100F90009B805FEA497040F1948006F4807008EA13
:100FA000102028435FEA8871014648BF41F00201E2
:100FB000B20558BF01465FEA48700D4648BF45F08C
:100FC0000405700558BF0D46300540F17A8018F0D1
:100FD000700000F076801038000905286CD8DFE832
:100FE00000F003595D61656945F0080564E000BFE4
:100FF00020684FF48071BA0581600BD4780515D450
:1010000038051DD4204600F083F9F8037FF56CAF56
:101010001BE000BF204600F07DF9F8037FF564AFC8
:1010200013E000BF4FF4006558E700BF05F5005519
:10103000F8037FF559AF08E04FF480554EE700BF45
:1010400005F58045F8037FF54FAF20684FF48031F8
:10105000BA0381600AD4780310D4380314D420462C
:1010600000F05AF930073FF541AF47E7204600F05E
:1010700055F930073FF53AAF40E700BF05F50045A9
:1010800030073FF533AF39E705F5803530073FF5D9
:101090002DAF33E745F010050EE000BF45F0200509
:1010A0000AE000BF45F0400506E000BF45F08005BE
:1010B00002E000BF45F480752068816921F070016D
:1010C000816120680421416055B1606A40EA0501F0
:1010D0002046616201B0BDE8F04FFFF7BFBE00BF20
:1010E00001B0BDE8F08F0000B0B5C8B1044690F87B
:1010F000200010B9204600F071F82068016841F026
:101100000101016000F004FC054600BF2068416851
:10111000C90707D100F0FCFB401B0B28F6D312E0F7
:101120000120B0BD016821F00201016000F0F0FB78
:10113000054600BF2068416889070DD500F0E8FB2F
:10114000401B0B28F6D3606A052140F40030606232
:10115000012084F82010B0BD217E0268012922F010
:10116000800208BF80320260617E0268012922F09D
:10117000400208BF40320260A17E0268012922F0CD
:10118000200208BF20320260E17E0268012922F0BD
:10119000100218BF10320260217F0268012922F07C
:1011A000080208BF08320260617F0268012922F04C
:1011B000040208BF04320260D4E901C2D4E9033555
:1011C00061691A432A431143ACF101021143C16121
:1011D00000200121606284F82010B0BDB0B586B057
:1011E000006846F20042C4F20002002190420591DC
:1011F00002D006B0B0BD00BF41F21800C4F2020038
:10120000426840F6004442F0007242604268C4F214
:10121000010402F000720192019A026802AD42F0EC
:1012200008020260006800F00800019001984FF485
:101230008070CDE9020104912046294600F04EFA63
:101240004FF4007002900220039003200590204686
:10125000294600F043FA0420C4F20100016849F66F
:10126000FF72CFF6FF02114041F0E06141F480418E
:10127000016013200021002201F092FA132001F0F6
:101280007BFA14200021002201F08AFA142001F0D8
:1012900073FA06B0B0BD0000704700007047000050
:1012A000704700007047000070470000B0B504466A
:1012B00090F8200001281DD1022084F82000206829
:1012C000016821F00101016000F022FB054600BF2A
:1012D00020684068C00713D000F01AFB401B0B28A1
:1012E000F6D3606A40F400306062052084F8200084
:1012F0000120B0BD606A40F4002060620120B0BDF2
:1013000000206062B0BD0000704700007047000020
:1013100070470000704700007047000070470000F1
:1013200070470000B0B5864602208EF80500DEF852
:101330000000836843F00103836042B1531E032B16
:1013400002F0030C08D20022BCF1000F1AD1006891
:1013500001218EF80510B0BD22F00302A1F11003A7
:101360005442002253F8105F043A05605D689442CD
:1013700005609D680560DD680560F3D15242BCF1EF
:10138000000FE4D051F82230BCF1010F0360DED031
:1013900001EB82014A68BCF1020F02601CBF896840
:1013A0000160006801218EF80510B0BD002804BF5F
:1013B0000120704710B50446407918B101206071D2
:1013C000002010BD00202071204600F005F801200B
:1013D0006071002010BD000081B0006843F2000180
:1013E000C4F20201884201D001B0704741F21400FA
:1013F000C4F20200016841F040010160006800F0A1
:1014000040000090009801B07047000080B590F84F
:101410002110022924D10268116821F00E01116007
:101420002F211368C4F202018A4240F20401C4F27F
:10143000020123F00103136016DD3023C4F202031E
:101440009A421DD04423C4F202039A421CD058236E
:10145000C4F202039A421DD14FF4803322E000BF50
:1014600004218163012080BD0823C4F202039A4253
:101470000ED01C23C4F202039A420BD1102311E0B8
:101480004FF480730EE000BF4FF480530AE000BFBA
:10149000012307E001F1680C4FF08073624508BF3B
:1014A0004FF480130B60012180F82110426B002162
:1014B00080F820100AB190470021084680BD000046
:1014C00090F8210070470000B0B5044600F020FA03
:1014D000054640F20800C2F200000078611C18BF07
:1014E000044400BF00F014FA401BA042FAD3B0BD80
:1014F0002DE9F04381B040F29876C2F20006327EC8
:10150000012A03D1022001B0BDE8F0830546012085
:101510002C6830764CF250308846FEF7C9FF022C1A
:101520001CD100284ED1002042F21004F061C4F218
:101530000204206840F004002060206840F0400071
:1015400020604CF25030FEF7B3FF216821F0040117
:1015500021600021317601B0BDE8F08390BB4FF0EF
:10156000FF30C8F80000D5E9027007EB8020874201
:1015700028D242F21004C4F202044FF0000900BF66
:10158000C6F81C90206840F0020020606760206868
:1015900040F0400020604CF25030FEF789FF216897
:1015A00021F00201216098B9D5E9020107F58067B1
:1015B00000EB81208742E3D300200021317601B087
:1015C000BDE8F08301200021317601B0BDE8F08351
:1015D000C8F800700021317601B0BDE8F08300004A
:1015E00040F29870C2F20000C069704742F21001E8
:1015F000C4F20201086840F0800200200A607047CF
:101600002DE9F04F81B040F29879C2F2000992467C
:1016100099F81820012A03D1022001B0BDE8F08F0B
:101620008046012089F818004CF250309B460E4647
:10163000FEF73EFFA0BB404642F21007B8F1020F92
:1016400018BF0420C4F20207B8F1010F08BF4046DA
:1016500045424FF000080024C4F12001C9F81C8065
:101660002AFA04F00BFA01F13A680843B4F12001B8
:1016700058BF2BFA01F042F00101396026F8020B45
:101680004CF25030FEF714FF3968013521F00102A9
:1016900048F100013A6018B9002904F11004DBD0C8
:1016A000002189F8181001B0BDE8F08F42F2040063
:1016B000C4F20200C16809065CBF0020704740F216
:1016C0002311C4F26751016048F6AB11CCF6EF511B
:1016D0000160C068C0B2C009704700002DE9F04F3A
:1016E00082B00E68002E00F0038141F20042C4F285
:1016F0000102042340F2004E904208BF03234FF63C
:10170000FF7CC4F2010E009300240123C1F2100CEF
:101710004FF0000A4FF0000949E000BF012704F034
:101720000C030F229A402BEA020207FA03F34FEA56
:101730009A051A4346F82520D1F804B040F20C452A
:101740005FEACB22DEF8082054BF22EA080242EA10
:101750000802C4F20105CEF808202A685FEA8B234C
:1017600054BF22EA080242EA08022A605FEA8B3389
:10177000DEF8042054BF22EA080242EA08025FEAC7
:10178000CB33CEF80420DEF800204FF0010354BF25
:1017900022EA080242EA0802CEF800200E680AF1A6
:1017A000010A36FA0AF204F1040400F0A18003FAF7
:1017B0000AF816EA080FF1D04E68664512DC122EC0
:1017C00056D8DFE806F0350B454955555555555562
:1017D000555555555555554D510000BFD1F80C90F4
:1017E00046E000BF4FF6FF72C1F2210296420FDCC5
:1017F0000022C1F2110296421AD00022C1F2120256
:10180000964215D00022C1F22102964210D02FE05C
:101810000022C1F2220296420AD00022C1F2310215
:10182000964205D00022C1F23202964220D100BF7A
:101830008A684AB1012A14BFC0F81480C0F8108029
:101840004FF0080914E000BF4FF0040910E000BF9A
:10185000CA6802F108090BE04FF0000908E000BF78
:10186000CA6802F1040903E0CA6802F10C0900BF6A
:1018700022460646BAF1080F24BF203A04363768DC
:101880000F25954027EA050509FA02F22A4332603E
:10189000CA79D2067FF582AF41F21803C4F202037F
:1018A0001A68AEF57E7642F001021A601A6802F0FC
:1018B00001020192019A2AF0030256F802B040F6A2
:1018C0000002C4F20102904210D040F60042C4F27D
:1018D000010290423FF422AF41F20002C4F2010241
:1018E000009F904208BF022719E700BF002716E7B4
:1018F00002B0BDE8F08F00008068084018BF0120EA
:1019000070470000002A08BF090401617047000009
:1019100040F6BC00C2F2000000687047704700004B
:1019200070470000F0B581B00446006800254769A3
:10193000426894F83E1002F48076FA0508D53EB16C
:101940006FF4807242610268012542F40042026035
:10195000BA0505D5002E1EBF02356FF40072426134
:101960007A0516D5AEB1628D94F83D30D4F830C00A
:10197000202908BF002A23D06FF48062402905F196
:101980000405426101D0102903D1016841F40071BE
:101990000160380506D52EB1206808356FF4006166
:1019A000416100E055B1206C40EA05012046216408
:1019B00001B0BDE8F04002F0F5BF00BF01B0F0BDDE
:1019C00003F0F701212909D0282B08BFBCF1210F12
:1019D00004D06FF4806141610435DAE794F83D107A
:1019E000E26AB2F1080318BF0123203A18BF0122AE
:1019F000134208BF282921D0212939D10021CFF64F
:101A0000FF71E16221212163202184F83D10002132
:101A100084F83E10426822F4E06242606FF4806213
:101A20004261026822F4806202604269120648BF85
:101A30000161204600F002FEABE700BF0021CFF6B7
:101A4000FF71E162416821F4E06141606FF48061FF
:101A50004161016821F48061016000202021206340
:101A600084F83D1084F83E00204600F0F1FB90E73A
:101A70006FF4806141618CE7F0B581B0076804467E
:101A80007868E26A94F83E3094F83DE0402B01D04B
:101A9000102B27D1BE697D69E90751D1B2F12A4FD8
:101AA00000F0BE82B2F52A0F00F0BA8200F4007294
:101AB0004FF0010C29078CEA522C45D5002A43D05F
:101AC000606B616CC9B2396118B1806A002840F05E
:101AD0002481A06B002800F0A382806A002840F0D7
:101AE0001C819DE2216C00F4007300290CBFBE69CB
:101AF00000267D69A90753D5002B51D0206C002802
:101B000018BFBE6994F83D0000F02800282840F076
:101B100093807868002320F480607860012020EAB8
:101B2000960130064FF0180058BF0C20225A20466C
:101B300084F83C3001B0BDE8F040FFF7F1BE00BFD3
:101B4000810557D44FF0010CA90759D5BCF1000FFE
:101B500056D194F83E30E06A226B94F83D10222969
:101B600040F0E280216D002908BF402B00F0DC80AE
:101B7000216D002940F032812169B1F5404F40F0DC
:101B80002D810020009078690090B869009000983D
:101B9000386840F480703860206D013093E200BFF7
:101BA000E90655D5002B53D094F83D50786820F4C1
:101BB000E06078600020009078690090386840F01C
:101BC000010038600098386820F4806038607868D8
:101BD000000540F1408105F0F7002646222840F03C
:101BE000198156F8380F0168496826F80E1C36F836
:101BF0000E1C17E1E06AB0F52A0F5FD1012062E008
:101C00007968720701F4006100F19880002940F0C2
:101C10000782690605F0040140F1AE8110F480608E
:101C200000F0AA81002940F0A781204601B0BDE85C
:101C3000F04002F0F9BF00BF0020009079690091E8
:101C4000B9690091009984F83C0001B0F0BD00BF73
:101C50000EF0F70100F48062212905F0040040F045
:101C60008380290640F14881002A00F04581002840
:101C700040F0428194F83D00618D002900F0D08150
:101C8000616A11F8012B3A616162618D01396185E8
:101C9000618D002908BF292840F0C2817868282179
:101CA00020F48060786021202063204684F83D1075
:101CB00001B0BDE8F04000F0C1BC00BFE06AB0F187
:101CC0002A4F01D10820E06294F83E0040280BD151
:101CD000206D616C002801F0FE0018BF40F001008B
:101CE000386101B0F0BD00BF2069B0F5804F65D10B
:101CF00094F83D00616C212801F0FE0118BF01310C
:101D00003961606B08B1806A38B9A06B002800F0B7
:101D10008781806A002800F08381786840F4006041
:101D2000786001B0F0BD00BF00200090786900909D
:101D3000B8690090009801B0F0BD00BF002940F0E4
:101D40006F81290605F0040140F1228110F48060C2
:101D500000F01E81002940F01B81204601B0BDE843
:101D6000F04003F04DB800BF690640F1D980002A69
:101D700000F0D680002840F0D38094F83D00618DBB
:101D8000002900F04D813969626A1170616A013180
:101D90006162618D01396185618D002908BF2A2842
:101DA00040F03E812068416821F48061416022203A
:101DB00028212063204684F83D10D8E0206D0028BB
:101DC00000F0C080206D012840F02A81606C06215F
:101DD00001EAD010F130386101B0F0BD618D61B120
:101DE000618D012940F0E480202818BF082840F0C8
:101DF0001981386820F4806038600020009078698C
:101E00000090B86900900098386840F4007038601D
:101E100058E100BF56F8340F0168496826F80A1CDB
:101E200036F80A1C19B1216C41F00401216479686B
:101E300021F400617960FFF743FB01280BD0306883
:101E400044F68101C0F600014163FFF7DFFA10B1EB
:101E50003068416B8847608D60B1206841694907EF
:101E600030D4416949063AD4608D18B1206C40F0F5
:101E700004002064206C28B1204601B0BDE8F04089
:101E800002F090BD2A2D07D100202063282084F87D
:101E90003D00204600F0D0FB94F83D00282859D1A1
:101EA0000020CFF6FF70E06200212020216384F83B
:101EB0003D00204684F83E1001B0BDE8F04000F03F
:101EC000C7B900BF0069616A0870616A20680131A2
:101ED0006162618D0139618541694906C4D5006936
:101EE000616A0870606A01306062608D01386085E7
:101EF000608D0028BAD1BDE7002818BF002B00F084
:101F00008F80608D002800F08B80606A10F8011BC4
:101F100039616062608D0138608501B0F0BD00BF3D
:101F2000002818BF002B00F07B80608D002877D040
:101F30003869616A0870606A01306062608D0138DA
:101F400060856DE0606C062101EAD010F0303861E8
:101F500001B0F0BD206B222818BF222D60D10021D6
:101F60002020216384F83D00204684F83E1001B013
:101F7000BDE8F04000F060BBB1FA81F0400950EAE2
:101F80000C004DD1204601B0BDE8F04002F0D0BDBC
:101F9000B1FA81F0400950EA0C0041D1BEF1210FA5
:101FA00036D1204601B0BDE8F04002F0E7BE00BFE8
:101FB000618D022914D1102858D8012114228140A2
:101FC000C0F20102114251D0396841F48061396098
:101FD0000021009179690091B9690091009954E05C
:101FE000396841F4806139607968090563D5421E1A
:101FF0001F2A5DD80121914048F28102C8F20002F7
:10200000114255D0786840F48050786053E000BFAA
:10201000402B05D1204601B0BDE8F04002F04ABF98
:1020200001B0F0BD10F5803F0CD1386820F480601D
:102030003860786800057FF5E0AE386820F480608D
:10204000386038E0122A02D101287FF4D2AE10287D
:10205000F3D8012101FA00F01421C0F20101084275
:10206000EBD0386840F48060386024E0396841F48F
:10207000006139600021009179690091B96900918E
:102080000099396821F4806139607968090519D5AA
:10209000421E1F2A1AD80121914048F28102C8F23B
:1020A0000002114212D0786840F48050786009E054
:1020B00010F5803FA6D00020009078690090B869A4
:1020C000009000980020206501B0F0BD10F5803F21
:1020D000E9D0F7E77047000070B5B8B3044690F850
:1020E0003D0028B9002084F83C00204600F062FA48
:1020F000242084F83D002068016821F0010101607E
:10210000016841F400410160016821F4004101606F
:1021100001F07AFB48F28041C0F21E0140F6001344
:10212000D4F804E088424FF00001C0F23D0348F2C9
:10213000A16C4FF0000238BF01219842C0F2010C9F
:1021400038BF0122E64538BF0A460AB1012070BDFA
:102150004DF68361C4F21B31A0FB01122168950C7E
:102160004B684FF4967623F03F0343EA924375435E
:1021700044F6D3564B60C1F262060B6AA5FB0656C5
:10218000B50923F03F03E64538BF950C6A1C1A4396
:102190000A62CA6948F2A0664CF6FF73C0F20106F3
:1021A000B64522EA03020BD801384FEA4E03B0FBD2
:1021B000F3F001306FF31F30042898BF04201EE0B5
:1021C000A368013863B119230EFB03F3B0FBF3F0EE
:1021D00001306FF31F3078B100F5804008E000BF98
:1021E0000EEB4E03B0FBF3F001306FF31F3028B15C
:1021F00000F5004003E000BF012000E00120104393
:10220000C8610868D4E9072320F0C00010431843D0
:102210000860886848F2FF3204F10C0690434CCE07
:1022200018431043A5698860C86820F0FF00304358
:102230002843C860086840F00100086000202021A1
:10224000206484F83D10206384F83E0070BD0000D7
:1022500070470000704700007047000080B581B0F3
:102260004FF0000CCDF800C090F83DC0BCF1200F3D
:1022700062D140F2100CC2F2000CDCF800C04BF24C
:10228000895E4FEADC0CC1F2F84EACFB0ECE4FEA91
:102290001E2C4FF0190E0CFB0EFCCDF800C0DDF823
:1022A00000C0ACF1010CCDF800C0DDF800C0BCF1FD
:1022B000000F47D0D0F800E0DEF818C05FEA8C7C51
:1022C00035D5DDF800C0ACF1010CCDF800C0DDF86B
:1022D00000C0BCF1000F35D0D0F800E0DEF818C027
:1022E0005FEA8C7C23D5DDF800C0ACF1010CCDF8A1
:1022F00000C0DDF800C0BCF1000F23D0D0F800E032
:10230000DEF818C05FEA8C7C11D5DDF800C0ACF1B6
:10231000010CCDF800C0DDF800C0BCF1000F11D0F9
:10232000D0F800E0DEF818C05FEA8C7CB7D490F8F3
:102330003CC0BCF1010F11D14FF0020C604601B05E
:1023400080BD00BF00222021026380F83D1080F88C
:102350003E2000F1400E4FF0020C35E0DEF800C0E8
:102360005FEACC7C05D1DEF800C04CF0010CCEF861
:1023700000C0DEF800C02CF4006CCEF800C04FF0B6
:10238000220C80F83DC04FF0100C80F83EC04FF09A
:10239000000CC0F840C042624385428D0285002295
:1023A000CFF6FF72C262416480F83CC0DEF80400E0
:1023B0004FF4807140F4E060CEF80400DEF80000D5
:1023C00040F48060CEF80000DEF800000843CEF84C
:1023D0000000604601B080BD2DE9F04383B01E4689
:1023E000174689460446FFF793FA94F83D102029D2
:1023F00020D10546206800BF8169890716D5FFF7FF
:1024000087FA411B20681A29F6D381698907F3D519
:1024100000202021206384F83D1084F83E00216CC8
:1024200041F02001216484F83C0003E094F83C1062
:10243000012903D1022003B0BDE8F083012184F813
:102440003C100168C90703D1016841F00101016036
:10245000016840F2020821F400610160212184F842
:102460003D10102184F83E100021216467626685CA
:10247000618DC0F201082185A8F10211E162E16AD3
:102480000A9E11F5803F18BF01291DD1016841F452
:102490008071016020464FF0011100223346009503
:1024A00002F0C8FD50B120680068C00544BF4FF479
:1024B00000702064012003B0BDE8F0832069B0F50E
:1024C000804F07D1FE2015E00829DFD0216B1229AB
:1024D000DCD0DFE7062000EAD9102168F03008617F
:1024E00008F10601204632462B4602F08DFE0028F8
:1024F000E0D1FF20216800EA09000861204641463A
:1025000032462B4602F080FE0028D3D100200290F4
:1025100020684169029180690290029806E000BF3C
:10252000204631462A4602F025FD18BB208D68B3AF
:10253000204631462A4602F0D7FED8B9606A2168A3
:10254000024612F8013B0B616262628D013A6285BC
:10255000228D531E23854F697F07E1D51B04DFD0F1
:10256000437802300B616062608D01386085901E97
:102570002085D5E7206C04289CD12068016841F4AF
:1025800000710160012003B0BDE8F083206801689C
:1025900041F400710160202084F83D00002084F89F
:1025A0003E0084F83C0003B0BDE8F08370470000B3
:1025B0007047000010B586B045F200410068C4F2D3
:1025C000000100228842049202D006B010BD00BF74
:1025D00041F21804C4F20204206840F008002060B0
:1025E000206800F0080001900198C020029012209D
:1025F00003900320059001F5384002A9FFF76EF81B
:102600006068002140F4001060606068002200F4FF
:102610000010019001981F2000F0C2F81F2000F068
:10262000ABF820200021002200F0BAF8202000F0B2
:10263000A3F806B010BD000070470000704700000E
:1026400070B548B304460068D4E901124CF6CC4397
:10265000036045F25553036041608260FFF758F90B
:102660002168CA68920711D0054641F23D3602E062
:10267000C86880070AD0FFF74BF9401B2168B042B9
:10268000F6D3C8688007F3D0032070BD4AF6AA20AD
:102690000860002070BD00BF012070BD01684AF6CF
:1026A000AA2200200A60704740F2080040F6BC01F0
:1026B000C2F20000C2F2000100780A68104408600B
:1026C0007047000080B542F20000C4F202000168C9
:1026D00041F010010160032000F08EF80F2000F09F
:1026E00005F800F027F8002080BD000070B540F22A
:1026F0000806C2F2000640F210013278C2F2000170
:102700004FF47A730968B3FBF2F20446B1FBF2F1BD
:10271000084601F07BFA0F2C4FF0010508D838B9B4
:102720004FF0FF3021460022002500F039F8746098
:10273000284670BD82B041F21800C4F20200016860
:10274000022241F001010160016801F001010191E3
:102750000199416841F080514160406800F080502B
:10276000009000980420C4F20100016862F31A612D
:10277000016002B070470000002848BF7047C1B236
:1027800000F01F00012202FA00F04EF20012CEF219
:10279000000242EAD10121F0030108607047000005
:1027A00010B54EF60C5CCEF2000CDCF80030C3F332
:1027B000022E8EF00704042C28BF0424BEF103036C
:1027C0004FF0FF3E0EFA04F438BF0023A1439940B6
:1027D0000EFA03F39A43114300F00F0200F1604335
:1027E0000901043A03F564436244002848BF02F13A
:1027F0000C03197010BD00004EF60C51CEF2000112
:102800000A684FF6FF031A4060F30A2242F0806024
:1028100040F0FD700860704770470000704700008E
:102820002DE9F04F81B00446006803F031FA01044D
:102830001ED4410500F10484410400F11384810495
:1028400000F12884C10400F12F84010500F14684C1
:10285000810500F19584C00540F100842068B0F83E
:10286000441021F48071A0F8441000F0F7BB00BFC1
:102870002068B0F94410B1F1FF3F00F3EF8304F595
:10288000267140F60F75009123E000BFB0F850109C
:1028900094F8502101EBC20100EB4101B1F80C3476
:1028A000B4F8562100996FF39F23C4F86C3103F0FC
:1028B000F3F920680188294080310180204600F02A
:1028C000C1FD00BF2068B0F94410B1F1FF3F00F333
:1028D000C583B0F8442012F00F090DD030F929104B
:1028E0004FEA490AB1F1FF3F1FFA81F82EDD5FEA96
:1028F0000860E7D55EE100BF0188D20668D42940B0
:1029000001F500410180B0F85010227C01EBC201BA
:1029100000EB4100B0F80404616A6FF39F20E062AD
:102920000844606220460021FFF776FF607B0028A4
:10293000C8D0A06A0028C5D1607B216840F0800023
:10294000C0B2A1F84C0000206073BBE730F81A1049
:102950002940803120F81A1009EB890104EBC10BE2
:102960009BF85C110BF5A876002900F083809BF89A
:102970005311022940F09080B0F850203178DBF8F4
:10298000683102EBC1070BF5B4725FEA484500EB12
:10299000470700F19B80B7F80C7400256FF39F2761
:1029A000DB1B38BF2B46136040F2A8805FEA486209
:1029B00040F60F7500F1B48030F8212048F2C003D2
:1029C0002A401A4320F82120002F40F0AA80CFE0AF
:1029D0000A053FF55BAF09B2B1F1FF3F3FF772AFB8
:1029E0000188294080310180B0F8501094F85021BE
:1029F00001EBC20100EB4101B1F80C346FF39F23EE
:102A0000C4F86C3193B1D4F8641179B1B4F856219B
:102A100003F042F9D4F86401D4F86C110844C4F806
:102A2000640120460021FFF7F9FE206801880A05AD
:102A30003FF548AF01F44051B1F5405F3FF442AF7C
:102A4000B0F8501000F20C42535A6FF39F235352C8
:102A5000D4F860313F2BC0F0118231F802C05F0919
:102A6000DE064FF0FF3608BF06EB53174CEA87230C
:102A70008BE200BFB0F85010327801EBC20100EBDE
:102A80004101B1F80C746FF39F27002F70D0DBF871
:102A90006411BBF8562167E0317848F2C00330F882
:102AA00021202A401A4320F8212030F82120B0F8B4
:102AB0005030520403EBC10100EB410118D4B1F8CE
:102AC0000C746FF39F2767BB52E000BFB7F8047424
:102AD00000256FF39F27DB1B38BF2B46136025D9DA
:102AE0005FEA486240F60F7531D4CFBB40E000BFCB
:102AF000B1F804746FF39F2797BB39E030F82120B9
:102B000043F60F731A404CF28003A3F500535A406A
:102B100020F821205FEA486240F60F757FF54CAF40
:102B200037B3DBF86411BBF85A211DE030F82120DF
:102B300043F60F731A404CF28003A3F500535A403A
:102B400020F821205FEA486240F60F75CDD530F8B5
:102B5000212048F2C0032A401A4320F821203FB127
:102B6000DBF86411BBF858213B4603F095F800E010
:102B70000027DBF86C11DBE9590239443844CBF803
:102B80006C11CBF864011AB1DBF86001B84209D9C5
:102B900031782046FFF742FE5FEA08607FF592AE8B
:102BA00008E000BF2068314602F032FC5FEA0860AE
:102BB0007FF588AE206809EB890130F81A2004EB14
:102BC000C10302EA050101F5004120F81A10D97C81
:102BD00003F1100B012923D1197F00294FF00001C7
:102BE000996200F045815FEA486100F18F80597C6D
:102BF000012900F02781002940F03A81B0F85010F7
:102C00009BF80020084400EB0210B0F80C146FF39E
:102C10009F21A0F80C14B0F80C1441F4004119E104
:102C20005FEAC8511ED4B0F850209BF800109F6A8C
:102C300002EBC10200EB4202B2F8042400266FF35B
:102C40009F22BF1A38BF37469F6240F21381596AEC
:102C5000DF6A11445962B918D962594602F0D8FBAB
:102C600030E600BFB0F850709BF800101A4652F8DA
:102C7000285F40F60F7A5FEA486607EBC1075FD42A
:102C800000F20C4939F817706FF39F27EE1B4FF0D5
:102C9000000538BF2E46166040F28E805FEA48423B
:102CA00008D430F821204CF2800602EA0A023243AE
:102CB00020F821201D4615F8342F012A40F0AE815E
:102CC0001A4652F8308F52E904E652F804AC06EB8B
:102CD000070C0AEB0706F04542F80CCC42F8046CEE
:102CE00080F00E81B8F1000F00F068810027C64621
:102CF00017602F705A7C012A40F00981B0F85020EB
:102D000009EB011121F802E07CE100BF597C0129A7
:102D100000F0A480002940F0AB80B0F850109BF880
:102D20000020084400EB0210B0F804146FF39F2158
:102D3000A0F80414B0F8041441F4004196E000BF78
:102D400000F2044939F817706FF39F27EE1B4FF01C
:102D5000000538BF2E46166050D95FEA484208D5B4
:102D600030F821204CF2800602EA0A02324320F8B1
:102D700021201A4612F8346F012E40F04F811D4673
:102D800055F830EF55E904A655F8048C06EB070C0E
:102D900008EB0706D64545F80CCC45F8046C80F0E6
:102DA000D1804FF00008BEF1000F82F8008040F0A3
:102DB000CC80BE46CBE000BF5A7C012A6AD0002AF4
:102DC00075D1B0F8502000EB01131A44B2F8043466
:102DD0006FF39F23A2F80434B2F8043443F40043A1
:102DE000A2F80434B0F8500009EB0112135A6FF343
:102DF0009F231352135A43F4004357E05A7C012A8D
:102E00005CD0002A67D1B0F8502009EB01139F5A1B
:102E10006FF39F279F529F5A47F400479F52B0F885
:102E2000502000EB01101044B0F80C246FF39F22E7
:102E3000A0F80C24B0F80C2442F40042A0F80C24B2
:102E400049E000BFB0F850109BF80020084400EBA8
:102E500002100021A0F80C140AE000BFB0F85010D6
:102E60009BF80020084400EB02100021A0F8041495
:102E70009BF800102046FFF7CFFC23E5002B00F065
:102E8000838003F001078E5A07EB530346EA83233E
:102E900080E000BFB0F8502000EB01131A4400237B
:102EA000A2F80434B0F8500009EB01121352204686
:102EB000FFF7B2FC5FEA484014D5AFE0B0F850200D
:102EC00009EB011300279F52B0F8502000EB0110CE
:102ED0001044A0F80C742046FFF79EFC5FEA4840BF
:102EE00040F19C8020689BF800104CF2800330F881
:102EF000212002EA0A021A4320F821208EE000BFB6
:102F0000A8EB0E0515605A7C012A3FF4F7AE002AA3
:102F100078D1B0F8507009EB0111CA5BBEF13F0FD8
:102F20006FF39F22CA5351D35FEACE654FEA5E1218
:102F30007D5A4FF0FF3608BF06EB5E1245EA82224B
:102F40005DE000BFAEEB0A08D646C5F800805A7CAB
:102F5000012A2BD0002A5BD1B0F8507009EB011187
:102F6000CA5BBEF13F0F6FF39F22CA533AD35FEAA9
:102F7000CE654FEA5E127D5A4FF0FF3608BF06EB72
:102F80005E1245EA822240E08B5A48F20007CFF6F3
:102F9000FF773B438B52018843F60F7211404CF28E
:102FA0008002A2F58052514001808BE4B0F850209D
:102FB00009EB011121F802E02AE000BF00222A708B
:102FC000BE465A7C012AA2D198E600BFBEF1000F8E
:102FD00014D00EF001027D5A02EB5E0245EA822215
:102FE0000FE000BFBEF1000F0ED00EF001027D5ABF
:102FF00002EB5E0245EA822209E000BF7A5A42F4FF
:1030000000427A525A8B04E07A5A42F400427A52D1
:103010001A8B1FFA8EF3614602F098FE20689BF827
:10302000001040F63F7330F8212040F60F751A402B
:1030300048F2C003103B5A4020F82120FFF742BC61
:103040002068B0F8441021F48061A0F844102046B4
:1030500000F0F2F994F8900201280DD101B0BDE81A
:10306000F08F00BF2068B0F8441021F48041A0F830
:10307000441001B0BDE8F08F0120002584F89002D3
:1030800065732068002102F059FE84F8905201B067
:10309000BDE8F08F2068B0F8441021F40051A0F88A
:1030A000441001B0BDE8F08F2068B0F8401021F066
:1030B0000401A0F84010B0F8401021F00801A0F879
:1030C0004010204600F0BAF92068B0F8441021F40E
:1030D0008051A0F8441001B0BDE8F08F2168B1F82C
:1030E00000C0B1F804E0B1F808808F890E8A8D8A9B
:1030F000088B8A8BB1F8403043F00103A1F84030CF
:10310000B1F8403023F00103A1F84030B1F8443069
:103110005B050CD4B1F844305B055CBFB1F84430BA
:103120005FEA435303D4B1F844305B05EED5B1F800
:10313000443023F48063A1F84430A1F800C0A1F822
:1031400004E0A1F808808F810E828D8208838A8333
:10315000B1F8400040F00800A1F84000B1F8440088
:1031600020F40060A1F84400B1F8400040F00402EF
:103170002046A1F8402001B0BDE8F04F00F064B94E
:103180002168B1F8440020F400722046A1F84420E0
:1031900001B0BDE8F04F00F053B90000F0B581B0C8
:1031A000002800F00C81044690F8910228B9002014
:1031B00084F89002204600F013F9032084F891026D
:1031C00020680021617102F019F994E80700237B5F
:1031D00002F002F9002840F0EF802068002102F0A0
:1031E000ABFD002840F0E8802179002900F0DE8066
:1031F000A1F1010E01F0030CBEF1030F4FF000022C
:1032000035D301F0FC0504F1A0000126002300BF26
:103210005F1C00F8687C9F1C00F8903C00F8407C24
:10322000DF1C043300F88F6C00F88D2C40E920225D
:1032300040F8782C00F8676C00F8652C40E91622FD
:1032400040F8502C00F83F6C00F83D2C40E90C226F
:1032500040F8282C00F8176C00F8187C00F8152CA2
:1032600040E9022240F8A02BAB42D1D11A46BCF172
:10327000000F29D002EB820004EBC00501230020DF
:10328000BCF1010F6B742A74E874C5E90800A862E8
:103290001AD0551C05EB850604EBC606BCF1020FDF
:1032A00073743574F074C6E90800B0620CD0901CD9
:1032B00000EB800204EBC20201231074002053745F
:1032C000D074C2E90800906200296FD0BEF1030FEC
:1032D0004FF0000233D301F0FC0104F5F07000233D
:1032E0005F1C00F8687C9F1C00F8903C00F8407C54
:1032F000DF1C043300F88F2C00F88D2C40E92022CD
:1033000040F8782C00F8672C00F8652C40E916226C
:1033100040F8502C00F83F2C00F83D2C40E90C22DE
:1033200040F8282C00F8172C00F8187C00F8152C11
:1033300040E9022240F8A02B8B42D1D11A46BCF1C1
:10334000000F33D002EB820004EBC0010020BCF17F
:10335000010F81F8510181F8502181F85301C1E931
:103360005800C1F8680121D0511C01EB810304EB26
:10337000C303BCF1020F83F8510183F8501183F8A5
:103380005301C3E95800C3F868010FD0901C00EB4B
:10339000800104EBC101002281F8512181F8500124
:1033A00081F85321C1E95822C1F8682194E8070047
:1033B000237B02F015F838B1022084F89102012530
:1033C000284601B0F0BD00BF00250120657384F8D8
:1033D0009102206802F002F8284601B0F0BD00001A
:1033E00080B582B0006845F60041C4F20001884211
:1033F0001CBF02B080BD41F21C00C4F20200016893
:10340000002241F4000101600068002100F4000086
:10341000019001981320FFF7C3F91320FFF7ACF9CF
:10342000142000210022FFF7BBF9142002B0BDE8F0
:103430008040FFF7A1B9000070470000704700000E
:1034400070470000704700007047000080B50128F9
:1034500018D0022836D0102832D141F20401C4F22B
:1034600002010A6851F8040CC00129D5C2F3834057
:103470002DA3185CD2033DD440F60012C0F23D02E9
:10348000504343E041F20400C4F20200C16940F23B
:1034900002320A40B2F5817F04BF4FF4004080BD84
:1034A00001F44071B1F5407F1CD0B1F5007F07D128
:1034B000006A49F64041800701EAE07080BD00BF24
:1034C000002080BD00F0B4F941F20401C4F2020111
:1034D00009680222C1F3813102EB4101B0FBF1F036
:1034E00080BD00BF50F8040C4FF22441800301EA74
:1034F000E07080BD0A6810A3C2F340429A5C41F2BA
:103500000023C0F27A03B3FBF2F250430968490288
:1035100048BF80BD4AF6AB214000CAF6AA21A0FBF5
:103520000101480880BD00BF020304050607080921
:103530000A0B0C0D0E0F1010010200002DE9F041D6
:1035400082B00446007841F21C06C007C4F20206AD
:103550004AD0306810F0805808D1306840F0805070
:103560003060306800F080500190019847F2000709
:10357000C4F200073868C00512D4386840F480707F
:103580003860FEF7C5F905463868C00508D4FEF76F
:10359000BFF9401B6428F7D9032002B0BDE8F081D1
:1035A000706810F4407012D0616801F44071884274
:1035B0000DD0706840F24042C4F24222012320F450
:1035C000407113600023C007136071602AD17068D6
:1035D000616820F440700843B8F1000F706003D1B7
:1035E000306820F0805030602068810707D556F899
:1035F000181CA26821F44041114346F8181CC0066B
:1036000004D4002002B0BDE8F08100BF56F8180CC9
:10361000E16820F48000084346F8180C002002B04E
:10362000BDE8F081FEF774F9054641F2883700BF26
:1036300070688007CBD4FEF76BF9401BB8424FF09F
:103640000300F5D9EBE700002DE9F04381B0002835
:1036500000F0858042F20008C4F202080446D8F85F
:1036600000000D4600F0070088420CD2D8F8000098
:1036700020F007002843C8F80000D8F8000000F048
:103680000700A8426BD1206841F204098107C4F207
:10369000020917D5410705D5D9F8001041F4E061BA
:1036A000C9F80010010705D5D9F8001041F46051A0
:1036B000C9F80010D9F80010A26821F0F0011143F8
:1036C000C9F80010C00741D1D8F8000000F0070089
:1036D000A8420CD9D8F8000020F007002843C8F809
:1036E0000000D8F8000000F00700A84237D1206899
:1036F000410707D5D9F80010E26821F4E0611143D1
:10370000C9F80010000708D5D9F80000216920F495
:10371000605040EAC100C9F80000D9F8002002F06A
:103720000C00082841F20020C0F27A0050D149F67E
:103730001F63C2F38341C0F60003595CD2033BD43C
:1037400040F60010C0F23D00484341E060680228A6
:103750000AD001282AD159F8041C890308D4012071
:1037600001B0BDE8F08300BF59F8041C8901F6D50B
:10377000D9F8001021F003010843C9F80000FEF752
:10378000C7F8064641F28837D9F80000616800F0B2
:103790000C00B0EB810F97D0FEF7BAF8801BB8424F
:1037A000F2D9032001B0BDE8F08300BF59F8041C32
:1037B0008907D4D5DCE700BFD9F8002049F25623A9
:1037C000C2F34042C0F600039A5C4843B0FBF2F0FB
:1037D000D9F8001049F23E22C1F30311C0F60002ED
:1037E000515C40F2100220FA01F140F20C00C2F2EA
:1037F00000000068C2F200021160FEF777FF0020AF
:1038000001B0BDE8F083000040F2100041F2040175
:10381000C2F20000C4F202010068096849F24E22B7
:10382000C1F30221C0F60002515CC840704700009D
:1038300040F2100041F20401C2F20000C4F20201A1
:103840000068096849F24E22C1F3C221C0F60002A5
:10385000515CC840704700002DE9F04182B000285B
:1038600068D00446007841F20006C007C4F20206A0
:1038700025D0706800F00C0004281BD0706800F0A0
:103880000C00082802D17068C00313D460680028B7
:1038900000F06881B0F5A02F00F07C81B0F5803F8A
:1038A00000F07C81306820F480303060306820F493
:1038B000802076E13068800301D56068D0B320783D
:1038C000800718D5706810F00C0F07D0706800F0F2
:1038D0000C0008286ED17068C0036BD43068800774
:1038E00002D52069012825D13068616920F0F800EF
:1038F00040EAC1003060207800071FD420784007DC
:1039000032D4E56995B1706800F00C00082840F0E9
:103910008F80012D0ED07068216A00F480328A42B7
:1039200008D1616A00F47010884203D1002002B00F
:10393000BDE8F081012002B0BDE8F081A069002857
:1039400062D00020C4F242200121C0F88014FDF7AB
:10395000DFFF0546706A800700F18C80FDF7D8FF15
:10396000401B0228F6D92AE1F06910F0805808D1EE
:10397000F06940F08050F061F06900F080500090F4
:10398000009847F20007C4F200073868C00529D440
:10399000386840F480703860FDF7BAFF054600BF14
:1039A0003868C0051ED4FDF7B3FF401B6428F7D963
:1039B00005E100BF2069002840F20000C4F2422067
:1039C00000F0828001210160FDF7A2FF054600BFE3
:1039D000306880073FF588AFFDF79AFF401B02284B
:1039E000F6D9ECE0E068002800F08080052800F0BF
:1039F0009780012800F09880306A20F00100306242
:103A0000306A20F0040092E00020C4F2422000213D
:103A1000C0F88014FDF77CFF054600BF706A800780
:103A20007FF56CAFFDF774FF401B0228F6D9C6E0A6
:103A30000027C4F2422700203866FDF769FF022DF7
:103A400005460BD13068800140F1BE80FDF760FF74
:103A5000401B02284FF00300F4D968E7306880016A
:103A60007FF564AFFDF754FF401B02284FF00300C1
:103A7000F4D95CE740F21000C2F20000006844F69E
:103A8000D351C1F26201A0FB0101480A019000BFBD
:103A900000BF0198411E002801913FF42FAF00BFE5
:103AA0000198411E002801913FF428AF00BF019802
:103AB000411E002801913FF421AF00BF0198411E33
:103AC00000280191E4D119E700210160FDF720FFF2
:103AD000054600BF306880077FF50DAFFDF718FF82
:103AE000401B02284FF00300F4D920E7306A20F091
:103AF00001003062306A20F004003062FDF708FFF8
:103B0000054641F2883700BF306A800720D5FDF7AF
:103B1000FFFE401BB8424FF00300F5D907E700BF96
:103B2000306A40F004003062306A40F001003062D8
:103B3000FDF7EEFE054641F2883700BF306A800788
:103B400006D4FDF7E5FE401BB842F7D937E000BFC9
:103B5000B8F1000F7FF4D5AEF06920F08050F0612D
:103B6000CFE600BF306820F480303060306820F449
:103B700080203060FDF7CCFE054600BF3068800332
:103B80007FF59DAEFDF7C4FE401B64284FF0030097
:103B9000F4D9CCE6306840F480203060306840F4DE
:103BA00080303060FDF7B4FE054600BF306880030A
:103BB0003FF585AEFDF7ACFE401B6428F6D9032027
:103BC00002B0BDE8F08100BF206AB0F5803F05D1AA
:103BD0007168A26821F40031114371607168626AF2
:103BE00021F4741111430843706001203866FDF719
:103BF0008FFE0446306880013FF598AEFDF788FEE1
:103C0000001B02284FF00300F4D990E6411E00206B
:103C1000B0EB116F1CBF012070474EF21002CEF2C4
:103C2000000251604EF62351CEF20001F0230B70DA
:103C300007219060116070477047000070470000D6
:103C400010B590F83C20012A4FF0020233D080F8E2
:103C50003D200268D2F804E0D2F808C00C682EF0CB
:103C60007003234340F2FF74C4F20004A242536085
:103C70000ADCB2F1804F13D040F20043C4F20003DB
:103C80009A420DD011E000BF42F60043C4F2010396
:103C90009A4205D040F60003C4F200039A4204D1D0
:103CA00049682CF08003194391600121002280F8BB
:103CB0003D1080F83C20104610BD0000002804BFD5
:103CC0000120704710B5044690F83D0028B9002047
:103CD00084F83C00204600F06FF8022084F83D0094
:103CE000206840F2FF730268C4F2000342F6004C01
:103CF0009842C4F2010C15DCB0F1804F1AD040F2AA
:103D00000041C4F20001884214D0984218DCB0F19E
:103D1000804F1DD040F20041C4F20001884217D00C
:103D20001AE000BF604505D040F60001C4F2000172
:103D30008842EAD1A16822F070020A439842E6DD87
:103D4000604505D040F60001C4F20001884203D16D
:103D5000216922F440720A43A36922F08001D4F859
:103D600004E0E268194360450160C262C0F828E0DF
:103D700002D16169CCF83010012141610269D2079A
:103D800003D0026922F001020261002084F846108B
:103D900084F83E1084F83F1084F8401084F84110F5
:103DA00084F8421084F8431084F8441084F84510D5
:103DB00084F83D1010BD000010B582B0006840F6D8
:103DC0000001C4F20001884214D040F20041C4F264
:103DD0000001884228D141F21C00C4F202000168AF
:103DE0001D2441F002010160006800F00200019012
:103DF00001980DE041F21C00C4F2020001681E248B
:103E000041F004010160006800F004000090009897
:103E1000204600210022FEF7C3FC204602B0BDE888
:103E20001040FEF7A9BC00BF02B010BD90F83D10D5
:103E300001291CBF01207047022180F83D10006855
:103E400040F2FF72C168C4F20002904241F00101E9
:103E5000C16009DCB0F1804F12D040F20041C4F2E1
:103E6000000188420CD012E042F60041C4F2010188
:103E7000884205D040F60001C4F20001884206D114
:103E8000816801F00701062904BF0020704701681E
:103E900041F00101016000207047000080B590F8FA
:103EA0003C20012A4FF0020200F0C28080F83D2041
:103EB000D0F800C04FF67772DCF8083023EA02022F
:103EC000CCF808200B684F2B28DC1F2B44DD202B5F
:103ED00045D0302B43D0402B40F0AC80D1F804E0EB
:103EE000C968DCF82030DCF8202022F00102CCF890
:103EF0002020DCF8182022F0F00242EA011123F021
:103F00000A0242EA0E02CCF81810CCF82020DCF8A5
:103F1000081041F0470121F0300180E06F2B27DDD0
:103F2000B3F5005F48D0B3F5805F7AD0702B40F0D6
:103F30008180D1E901E3C968DCF8082043EA0E0377
:103F400022F47F4243EA01211143CCF80810DCF847
:103F5000081041F0770162E00BB1102B6AD1DCF858
:103F6000081021F07001194341F0070157E000BF2C
:103F7000502B35D0602B5DD1D1F804E0C968DCF856
:103F80002030DCF8202022F01002CCF82020DCF8D1
:103F9000182022F4704242EA013123F0A00242EAE2
:103FA0000E12CCF81810CCF82020DCF8081041F0E4
:103FB000670121F0100132E0D1E901E3C968DCF8C2
:103FC000082043EA0E0322F47F4243EA0121114311
:103FD000CCF80810DCF8081041F480411FE000BF65
:103FE000D1F804E0C968DCF82030DCF8202022F0A9
:103FF0000102CCF82020DCF8182022F0F00242EA7E
:10400000011123F00A0242EA0E02CCF81810CCF893
:104010002020DCF8081041F0570121F02001CCF8F5
:1040200008100022012180F83D10002180F83C108A
:10403000104680BD0122F5E77047000070B50446C8
:104040000068C5680669B10716D515F0020113D0DE
:104050006FF002010161012121778069800703D09F
:104060002046FFF7E9FF05E0204600F08FF82046E4
:1040700000F08EF800202077700719D515F00400A5
:1040800016D020686FF00401016102212177806958
:1040900010F4407F04D02046FFF7CEFF06E000BFBB
:1040A000204600F073F8204600F072F800202077D8
:1040B000300717D515F0080014D020686FF00801FC
:1040C000016104212177C069800703D02046FFF7F2
:1040D000B3FF05E0204600F059F8204600F058F8FC
:1040E00000202077F00619D515F0100016D02068B2
:1040F0006FF01001016108212177C06910F4407F41
:1041000004D02046FFF798FF06E000BF204600F0ED
:104110003DF8204600F03CF800202077F00718BF5B
:1041200015F0010002D1300609D412E020686FF0CA
:1041300001010161204600F02DF8300609D515F087
:10414000800006D020686FF0800101612046FFF7F3
:1041500073FD700609D515F0400006D020686FF099
:1041600040010161204600F07BFBB00658BF70BDE6
:1041700015F0200008D021686FF0200220460A6167
:10418000BDE87040FFF75ABD70BD000070470000E9
:10419000704700002DE9F04F81B08346006840F27F
:1041A0000048C4F20008404508D008F58061884204
:1041B00000F02B8301B0BDE8F08F00BF40F2203942
:1041C000C2F20009B9F84C10B9F84220084600299B
:1041D00018BF012010444FF6FF7682B2B24200D0E1
:1041E00021B1911B18BF0146A9F8421040F28C3A48
:1041F000C2F2000ABAF81C10BAF8122008460029C8
:1042000018BF0120104482B2B24200D021B1911BEC
:1042100018BF0146AAF8121040F27800C2F200005E
:10422000816840F2F0050131C2F200058160286921
:10423000A98A00222A80FDF75FFB48B1688988B10E
:10424000E8880021E9820121698178B922E000BF74
:10425000E98AE88981420DD20131E982B04219D15F
:1042600014E000BF0020E8820120688100206880FF
:10427000A81D0DE0698900291EBF0121A980A9811F
:104280000021698101212980B04203D105F1160086
:1042900000210180A86AA98D00222A83FDF72CFB4A
:1042A00040B1688C80B1E88B0021E98501216984E7
:1042B00070B923E0E98DE88C81420FD20131E985A4
:1042C000B0421BD116E000BF0020E88501206884C1
:1042D0000020688305F11E000EE000BF698C0029F4
:1042E0001EBF0121A983A98400216984012129839A
:1042F000B04203D105F12E0000210180286CB5F8F1
:10430000441000222A86FDF7F7FA48B1688F98B169
:10431000E88E0021A5F846100121698788B925E0BB
:10432000B5F84610E88F814210D20131A5F8461049
:10433000B0421BD116E000BF0020A5F846000120C6
:1043400068870020688605F136000DE0698F002936
:104350001EBF0121A986A98700216987012129861D
:10436000B04203D105F1460000210180A86DB5F8E7
:104370005C100022A5F84820FDF7BEFA60B1B5F840
:104380005200A8B1B5F84E000021A5F85E10012139
:10439000A5F8521090B92CE0B5F85E10B5F85600AB
:1043A000814211D20131A5F85E10B04221D11CE04A
:1043B0000020A5F85E000120A5F852000020A5F815
:1043C0004A0005F14E0012E0B5F8521000291EBF58
:1043D0000121A5F84C10A5F854100021A5F85210A1
:1043E0000121A5F84810B04203D105F15E0000217B
:1043F0000180286FB5F874100022A5F86020FDF741
:104400007BFA68B1B5F86A00B0B1B5F86600002172
:10441000A5F876100121A5F86A1098B92DE000BF23
:10442000B5F87610B5F86E00814211D20131A5F8C9
:104430007610B04221D11CE00020A5F876000120C2
:10444000A5F86A000020A5F8620005F1660012E0F8
:10445000B5F86A1000291EBF0121A5F86410A5F85F
:104460006C100021A5F86A100121A5F86010B04277
:1044700003D105F176000021018040F26817C2F2F5
:1044800000073869B98A00223A80FDF735FA48B149
:10449000788988B1F8880021F9820121798178B979
:1044A00022E000BFF98AF88981420DD20131F982F8
:1044B000B04219D114E000BF0020F88201207881B9
:1044C00000207880B81D0DE0798900291EBF0121E8
:1044D000B980B9810021798101213980B04203D1AD
:1044E00007F1160000210180B86AB98D00223A83D5
:1044F000FDF702FA40B1788C80B1F88B0021F98584
:104500000121798470B923E0F98DF88C81420FD2B2
:104510000131F985B0421BD116E000BF0020F885BB
:10452000012078840020788307F11E000EE000BF90
:10453000798C00291EBF0121B983B98400217984B7
:1045400001213983B04203D107F12E0000210180FF
:10455000386CB7F8441000223A86FDF7CDF948B11F
:10456000788F98B1F88E0021A7F84610012179873D
:1045700088B925E0B7F84610F88F814210D2013192
:10458000A7F84610B0421BD116E000BF0020A7F8E4
:104590004600012078870020788607F136000DE07C
:1045A000798F00291EBF0121B986B987002179873B
:1045B00001213986B04203D107F146000021018074
:1045C000B86DB7F85C100022A7F84820FDF794F901
:1045D00060B1B7F85200A8B1B7F84E000021A7F8B3
:1045E0005E100121A7F8521090B92CE0B7F85E10C8
:1045F000B7F85600814211D20131A7F85E10B042DF
:1046000021D11CE00020A7F85E000120A7F852008D
:104610000020A7F84A0007F14E0012E0B7F8521048
:1046200000291EBF0121A7F84C10A7F85410002143
:10463000A7F852100121A7F84810B04203D107F1A2
:104640005E0000210180386FB7F874100022A7F8CF
:104650006020FDF751F968B1B7F86A00B0B1B7F85A
:1046600066000021A7F876100121A7F86A1098B912
:104670002DE000BFB7F87610B7F86E00814211D276
:104680000131A7F87610B04221D11CE00020A7F834
:1046900076000120A7F86A000020A7F8620007F161
:1046A000660012E0B7F86A1000291EBF0121A7F8C2
:1046B0006410A7F86C100021A7F86A100121A7F870
:1046C0006010B04203D107F176000021018040F272
:1046D000E016C2F20006B08968B1D6E90012401AAD
:1046E0004FF0000070EB020104D2F089718988421A
:1046F00012D20130F081B08CB0B1D6E90612401A66
:104700004FF0000070EB020104D2F08C718C8842F3
:1047100008D20130F08407E001203082B08C0028FC
:10472000EBD101E001203085308A318D084310D073
:10473000D9F85C00B9F8601000220024FDF7E2F817
:10474000D9F86400B9F868100022FDF7DBF8C9F861
:104750005040B08F68B1D6E90C12401A4FF00000FB
:1047600070EB020104D2F08F718F884216D20130B3
:10477000F087B6F85400E0B1D6E91212401A4FF0B3
:10478000000070EB020106D2B6F85600B6F85210DF
:1047900088420BD20130A6F856000AE00120A6F8A4
:1047A0004000B6F854000028E6D102E00120A6F847
:1047B0005800B6F84000B6F85810084310D0DAF8A0
:1047C0002C00BAF8301000220024FDF79BF8DAF82C
:1047D0003400BAF838100022FDF794F8CAF82040E7
:1047E000288EB5F86010A9F83200B5F84800AAF88C
:1047F0000210A9F830003988DBF80000AAF8001090
:1048000008F5806188427FF4D5AC40F22030C2F2D6
:10481000000090F83C10002790F83D200A2938BF8E
:104820004F1C40F28C31C2F2000180F83C700F7BCB
:104830004E7B0A2F4FF000054FF0000338BF7D1C60
:10484000142A4FF000070D7338BF571C80F83D70D5
:10485000142E38BF731C4B7301B0BDE8F08F0000FD
:1048600070470000FEE7000040F2D830C2F20000BE
:10487000FDF758B840F2D830C2F20000FDF7FCB89E
:1048800010B581B000210091406A40F21001C2F2DF
:10489000000190F83DC009684BF28952C908C1F285
:1048A000F842A1FB0212110A232251430091009900
:1048B00011B30099013900910168096889051FD574
:1048C0000099C9B100990139009101680968890509
:1048D00016D5009981B100990139009101680968E4
:1048E00089050DD5009939B1009901390091016808
:1048F00009688905DBD403E0016C41F02001016403
:10490000446B4FF0000E002C1CBF0021A162816B94
:1049100000291CBF00228A620268002C136823F45D
:1049200080631360A0F82AE018BFC4F834E00029BF
:104930001CBF00234B63116821F00101116090F846
:104940003D1060290CD1202180F83D10002180F815
:104950003E10016401B0BDE81040FCF7DFBF00BFAE
:104960000CF02801282911D1116841F001011160D2
:10497000116841F48061116000210163282180F8F1
:104980003D1001B0BDE81040FDF7A4BB202180F828
:104990003D10002180F83E1001B0BDE81040FDF749
:1049A00099BB000010B5044690F83D1090F83E0009
:1049B000B0F1100218BF0122403818BF0120024296
:1049C00008BF222934D001F0280028283AD100203D
:1049D0002063282084F83D0020684168090542D5FD
:1049E000416821F400614160606B90F82110012959
:1049F00058D1A06B44F68101C0F600014163FCF779
:104A000005FD002861D020684169490606D5006986
:104A1000616A0870616A206801316162016821F091
:104A200001010160202084F83D00A06B4BE000BF35
:104A30002068026822F4006202604268120505D50F
:104A40000CE000BF20684268120507D4602905D039
:104A5000202184F83D10002184F83E1000212163BC
:104A600041680905BCD494F83D10602950D120213B
:104A700084F83D10002121644169490606D500698A
:104A8000616A0870616A206801316162016821F021
:104A9000010101602046FCF741FF206C000717D19F
:104AA0001BE000BF44F68101C0F600014163FCF742
:104AB000ADFC50B12168606B0A6822F001020A6007
:104AC000202184F83D10416B8847206C000704D0FA
:104AD0002068416821F4E061416094F83D00216C58
:104AE000490758BF10BD282810D10020CFF6FF700D
:104AF000E06200212020216384F83D00204684F8F4
:104B00003E10BDE81040FDF7A3BB00BF10BD00BFC5
:104B10004169490605D50069616A0870606A01301B
:104B200060622046FDF7D6FA206C0007D0D1D4E7AA
:104B3000C16A428D042A07D10168426A4B6823F496
:104B400080634B60096911E0428D032A16D1026827
:104B50000229536823F48063536005D0042903D0ED
:104B6000116821F4806111601169426A1170416A13
:104B700001314162418D013941857047428D022AE0
:104B800012D14A1E0F2A19D8DFE802F008121812B3
:104B90001818181818181818181818080268136820
:104BA00023F480630EE000BF0168426ACAE700BFD9
:104BB0000268136843F4806304E000BF026813686E
:104BC00043F4007313601269436A1A70426AD0F8A2
:104BD00000C0531C4362438D013B4385DCF8103019
:104BE0005370426A036801324262428D013A428543
:104BF0005A6822F440725A60202280F83D2090F8D2
:104C00003E300022402B80F83E2003D10263FDF7A6
:104C1000CDBC00BFB1F1080218BF1222203918BF65
:104C200011460163FDF716BB81B090F83D102229B3
:104C300079D1C16A428D042A14D30168426A096994
:104C40001170416A01314162418D01394185418DC7
:104C5000032968D10068416821F48061416001B096
:104C6000704700BFC36A022B58D0012A56D80022D1
:104C7000009240F21002C2F2000212684BF2895315
:104C8000D208C1F2F843A2FB03231A0A02EB820204
:104C90000092009A013A0092009A002A46D00268D7
:104CA00013689B051AD5009A013A0092009AEAB35C
:104CB000026813689B0511D5009A013A0092009A88
:104CC000A2B3026813689B0508D5009A013A0092C6
:104CD000009A5AB3026813689B05DAD4136823F468
:104CE00080631360536823F4E06353601269436A7E
:104CF0001A70426A01324262428D013A4285202294
:104D000080F83D2090F83E300022402B80F83E2075
:104D100028D1026301B0FDF749BC00BF00684168BB
:104D200021F48061416001B0704700BF016C41F027
:104D3000200101640168426A4B6823F4E0634B6020
:104D400009691170416A01314162418D0139418522
:104D5000202180F83D10002180F83E1001B0FDF7C1
:104D6000B9B900BFB1F1080218BF1222203918BF2B
:104D70001146016301B0FDF76DBA0000C16A90F8F9
:104D80003D20212A18BF7047428D4AB1416A02680E
:104D900011F8013B13614162418D01394185704732
:104DA00011F5803F18BF082918D101684A6822F41C
:104DB000E0624A600A6842F400720A600021202220
:104DC000016380F83D2090F83E2080F83E10402A94
:104DD00008BFFDF7EDBBFDF73FBA00BF2029E4D0C7
:104DE00001684A6822F4E0624A60112101630021EF
:104DF00080F83E10202180F83D10FDF72DBA00000C
:104E000090F83D1090F83EC0C26A038D002B08BF99
:104E1000212919D0212905D0BCF1400F08BF222932
:104E200000D07047418D69B390F83E10402908BF0B
:104E300000F040B8416A026811F8013B1361416219
:104E4000418D01394185704712F5803F18BF082A0E
:104E50001ED101684A6822F4E0624A600A6842F49E
:104E600000720A6000212022016380F83D2090F842
:104E70003E2080F83E10402A08BFFDF799BBFDF7A1
:104E8000EBB900BF0068416821F480614160704760
:104E9000202ADED001684A6822F4E0624A601121CB
:104EA0000163002180F83E10202180F83D10FDF7BD
:104EB000D3B9000090F83D10026D5AB1026D012A7D
:104EC00014D10168826CD2B20A61016D01310165B1
:104ED000704700BFC26C816C012A15D10268C9B24B
:104EE0001161016D02310165704700BF026D022A38
:104EF00012D1222918D101680A6842F480720A602E
:104F0000016D0131016570470268C1F3072111612C
:104F1000016D01310165704700684169090644BFB0
:104F200000210161704700BF428D5AB1212909D18A
:104F3000416A026811F8013B13614162418D0139F8
:104F400041857047428D002A08BF2129EAD10168B6
:104F50004A6822F4E0624A600A6842F400720A6019
:104F600000212022016380F83D2080F83E10FDF7EB
:104F70001FBB000070B50368044653F8140F4007C8
:104F800011D40E46481C29D086BB00BF18684005C6
:104F900027D4FCF7BDFC236853F8140F400739D51C
:104FA00018684007F2D5002070BD00BF18684007A0
:104FB000F9D41868400514D418684007F3D4186869
:104FC00040050ED418684007EDD41868400508D491
:104FD000186840074FF0000048BF70BD18684005D2
:104FE000E4D56FF480601860042014E0154603E0F7
:104FF00053F8140F4007D6D418684005F1D4FCF7D5
:1050000087FC401B2368B042F2D958694007EFD4AF
:10501000202000E0202000212022216384F83D2070
:1050200084F83E10226C10432064012084F83C1068
:1050300070BD00002DE9F041054600681E4614468B
:1050400001F47F0201338FB242D0DDF81880B2F54F
:10505000803F40F0878040693840C01BB0FA80F044
:105060004009A04240F0C8804EB924E04069384071
:10507000C01BB0FA80F04009A04240F0BD80FCF7B0
:1050800047FCA0EB08012868B142EFD941693940DB
:10509000C91BB1FA81F14909A142E7D19BE000BFE8
:1050A00040693840C01BB0FA80F04009A0424FF080
:1050B000000040F0A680FCF72BFC286841693940CD
:1050C000C91BB1FA81F14909A142E9D183E000BFCE
:1050D000B2F5803F24D100BF41693940C91BB1FA04
:1050E00081F14909A14240F0878041693940C91BDB
:1050F000B1FA81F14909A14240F07E80416939400D
:10510000C91BB1FA81F14909A14275D14169394000
:10511000C91BB1FA81F14909A142DDD06CE000BFA1
:1051200081693940C91BB1FA81F14909A14263D1B2
:1051300081693940C91BB1FA81F14909A1425BD1AA
:1051400081693940C91BB1FA81F14909A14253D1A2
:1051500081693940C91BB1FA81F14909A142DFD007
:105160004AE000BF80693840C01BB0FA80F04009B7
:10517000A04241D146B923E080693840C01BB0FA53
:1051800080F04009A0423BD1FCF7C2FBA0EB080134
:105190002868B142F0D981693940C91BB1FA81F15F
:1051A0004909A142E8D116E080693840C01BB0FA35
:1051B00080F04009A0424FF0000018BFBDE8F08128
:1051C000FCF7A6FB286881693940C91BB1FA81F157
:1051D0004909A142E8D100202021286385F83D102B
:1051E00085F83E00296C41F02001296485F83C00D7
:1051F0000120BDE8F08100BF0020BDE8F08100BFC4
:105200000020BDE8F0810000F0B581B004460068E0
:105210001D4643698FB203EA0701B94202D100205B
:1052200001B0F0BD41691646013201F4806125D01C
:10523000002940D1CEB100BFFCF76AFB411B2068BA
:10524000B14203D941693940B9424BD14169394032
:10525000B942E4D041694905EED52CE041693940B5
:10526000B942DCD04169490525D4FCF751FB2068DF
:1052700041693940B942F1D0202024E0D9B94169CF
:105280003940B942CBD04169490514D4416939400C
:10529000B942C4D0416949050DD441693940B94288
:1052A000BDD04169490506D441693940B942B6D0FB
:1052B00041694905E3D5016841F4007101606FF46B
:1052C00080614161042000212022216384F83D2077
:1052D00084F83E10226C1043206484F83C100120B6
:1052E00001B0F0BD2020EEE770B50368044653F826
:1052F000140F000611D40E46481C29D086BB00BFEF
:105300001868400527D4FCF703FB236853F8140FF3
:10531000000639D518680006F2D5002070BD00BF20
:1053200018680006F9D41868400514D418680006F7
:10533000F3D4186840050ED418680006EDD4186838
:10534000400508D4186800064FF0000048BF70BD43
:1053500018684005E4D56FF480601860042014E0FC
:10536000154603E053F8140F0006D6D4186840051C
:10537000F1D4FCF7CDFA401B2368B042F2D958694A
:105380000006EFD4202000E020200021202221630D
:1053900084F83D2084F83E10226C104320640120E4
:1053A00084F83C1070BD0000FEE70000FEE700003E
:1053B0007047000070470000FDF776B970470000A5
:1053C00040F20470C2F20000FEF738BE40F24C70AA
:1053D000C2F20000FEF732BE002070470020704786
:1053E00001460120A1F8400000220020A1F8402041
:1053F000A1F84420A1F85020704700000146B0F801
:10540000400044F2FF0202400020A1F84020704713
:105410002DE9F04F82B04B78012B5FD18B690A697F
:105420000F7B934228BF1346002F00F07F80CF7878
:105430000C6A022F40F0C2800D7840F60F6630F8FB
:1054400025704FEA450E944206EA070648F2B00C72
:1054500040F2128148F2B007CFF6FF77D0373E43D3
:10546000A4EB030A20F81E60C1F820A030F81E70DB
:10547000B0F850602D017F0600EB050800F1528165
:1054800008EB0604A4F80434D1F814B09DB2002D42
:1054900000F014830E8900EB460606F580696E1C49
:1054A0004FF0FF3505EB5604C6F34105002D4FEADA
:1054B000560700F0DF815E46CDE9004836F8028BE2
:1054C0005C46CB46012D2BF8048B40F0D781D946A2
:1054D000DDF80480A346009C013FDEE20A7B002A3F
:1054E00048D0CA78012A00F09F80022A40F0C0808C
:1054F000002B40F0AA82B0F850300A780344120121
:1055000003F20447BB5A6FF39F23BB520B693F2B37
:10551000C0F04E81DC064FEA5316D45B4FF0FF35E6
:1055200008BF05EB531644EA8626C8E11A0400F0CA
:105530007381CA88D1F814E000EB420202F580685A
:105540009AB201324FF0FF37C2F3410407EB520C1D
:10555000002C4FEA520200F04C81774637F8025B8C
:105560004646012C26F8045B40F00A81013ABE460B
:10557000B0463EE18E690A69B31A38BF00238B61D9
:10558000B0F850700B7807444FEA031307F20C474A
:10559000FD5A38BF32466FF39F253F2AFD52C0F0B7
:1055A000CA81D406DC5B4FEA52164FF0FF3508BFC4
:1055B00005EB521644EA8622C7E100BFE21A0F78D3
:1055C0000A6230F82720B0F850403D0152060544E9
:1055D0004FEA470E9AB248F2B00C2C4400F17E809C
:1055E000002AA4F8043400F0D7800B8901324969FD
:1055F00000EB43034FF0FF34C2F3410503F5806332
:1056000004EB5208002D4FEA520200F0BC810E4616
:1056100036F8024B1F46012D27F8044B40F00C8151
:10562000013A31463B46AEE10A698F69BE1A3CBF7A
:1056300000263A46002B8E6140F08A81B0F8507007
:105640000B7807441B0107F20447FE5A3F2A6FF309
:105650009F26FE52C0F0B880D4064FEA5216DC5B9B
:105660004FF0FF3508BF05EB521644EA862650E19D
:10567000012002B0BDE8F08F48F2B002CFF6FF7211
:10568000303A324320F81E20B0F8502000EB0513CA
:105690001A442304A2F8044400F082800A8949696C
:1056A00000EB420202F58063A2B201324FF0FF34F8
:1056B000C2F3410504EB5208002D4FEA520200F0FC
:1056C00082810E4636F8024B1F46012D27F8044B07
:1056D00040F0BC80013A31463B4674E1002AA4F810
:1056E0000C3461D04B890132496900EB43034FF020
:1056F000FF34C2F3410503F5806304EB5208002D2B
:105700004FEA520200F07F810E4636F8024B1F46E8
:10571000012D27F8044B40F0A380013A31463B4667
:1057200071E100BF08EB0605A5F80C34D1F814B000
:105730009DB2002D00F016824E8900EB460606F55C
:1057400080696E1C4FF0FF3505EB5604C6F341052A
:10575000002D4FEA560700F08F805E46CDE90048E5
:1057600036F8028B5C46CB46012D2BF8048B40F0BB
:105770009580D946DDF80480A346009C013FE0E116
:10578000BEF80250022CA8F8045029D108F10808EC
:105790000EF1040E023A2CE040F63F71E3E000BF48
:1057A00040F63F71DFE000BF40F63F71DBE000BF35
:1057B000002B00F0838003F00106D55B06EB530657
:1057C00045EA862680E000BF002A00F0A18002F0B2
:1057D0000106DD5B06EB520645EA86269EE000BF29
:1057E000BEF804400EF1060EA8F8084008F10C08B7
:1057F000033ABCF1030F0FD3AEF10807A8F110066E
:1058000037F8085F043A26F8105F7D88B580BD88B8
:105810003581FD88B581F3D1B0F850200978024474
:1058200002EB011248F2B00CA2F804344FEA410E28
:1058300040F63F7197E000BF4C88022D9C8040F0FD
:105840009D8008330431023A9DE000BF4C88022D50
:105850009C8040F0B38008330431023AB3E000BFCB
:105860004C88022D9C8040F0C98008330431023AF4
:10587000C9E000BF5E4610E15E4662E16688A3466D
:10588000A9F80460DDF80480009C022D40F0FC8043
:1058900009F108090BF10406023FFEE06688A34601
:1058A000A9F80460DDF80480009C022D40F04081DE
:1058B00009F108090BF10406023F42E1D65B48F208
:1058C0000005CFF6FF752E43D653B0F850703F2B2E
:1058D000074407F20C47BE5A6FF39F26BE520BD304
:1058E000DC06D45B4FEA53164FF0FF3508BF05EBDB
:1058F000531644EA8623A2E0002B00F09F8003F0B9
:105900000106D55B06EB530345EA83239CE000BF09
:10591000DE5B48F20005CFF6FF752E43DE53B0F88C
:1059200050703F2A074407F20C47FE5A6FF39F2638
:10593000FE52BFF436AE3AB102F00106DD5B06EB73
:10594000520245EA822202E0DA5B42F40042DA5374
:1059500009784FEA410E42F6D071A1F5E041A1F578
:10596000756C43F60F7130F81E20114081EA0C016E
:1059700020F81E10002002B0BDE8F08F8C880631A0
:105980001C810C33033AB8F1030F03D240F63F7188
:10599000E9E700BFA1F10804103B00BF34F8081F7D
:1059A000043A23F8101F61889980A1881981E18841
:1059B000998140F63F71F1D1D5E700BF8C8806315F
:1059C0001C810C33033AB8F1030F03D240F63F7148
:1059D000C9E700BFA1F10804103B00BF34F8081F5D
:1059E000043A23F8101F61889980A1881981E18801
:1059F000998140F63F71F1D1B5E700BF8C8806313F
:105A00001C810C33033AB8F1030F03D240F63F7107
:105A1000A9E700BFA1F10804103B00BF34F8081F3C
:105A2000043A23F8101F61889980A1881981E188C0
:105A3000998140F63F71F1D195E700BFD35B48F201
:105A40000006CFF6FF763343D353CA69002A3FF4EA
:105A50007FAF0A7844F2400730F822303B40BB4227
:105A600002D0002B7FF474AF520030F8123040F6B1
:105A70000F773B4048F2B007CFF6FF773B43103338
:105A800020F8123064E700BFBBF804500BF10606A3
:105A9000A9F8085009F10C09033F032C0ED3083E66
:105AA000A9F1100536F8084F043F25F8104F748807
:105AB000AC80B4882C81F488AC81F3D10BEB030665
:105AC00000244E61924588BFAAEB03040C62B0F833
:105AD000502088BF9A4608EB02031FFA8AF2A3F807
